{
  "contractName": "ContractAuth",
  "abi": [
    {
      "constant": true,
      "inputs": [
        {
          "internalType": "uint256",
          "name": "",
          "type": "uint256"
        },
        {
          "internalType": "uint256",
          "name": "",
          "type": "uint256"
        },
        {
          "internalType": "uint256",
          "name": "",
          "type": "uint256"
        }
      ],
      "name": "authTable",
      "outputs": [
        {
          "internalType": "uint256",
          "name": "",
          "type": "uint256"
        }
      ],
      "payable": false,
      "stateMutability": "view",
      "type": "function"
    },
    {
      "constant": true,
      "inputs": [
        {
          "internalType": "uint256[2]",
          "name": "contract_id",
          "type": "uint256[2]"
        }
      ],
      "name": "getContractAuthKey",
      "outputs": [
        {
          "internalType": "uint256[2]",
          "name": "",
          "type": "uint256[2]"
        }
      ],
      "payable": false,
      "stateMutability": "view",
      "type": "function"
    },
    {
      "constant": false,
      "inputs": [
        {
          "internalType": "uint256[2]",
          "name": "contract_id",
          "type": "uint256[2]"
        },
        {
          "internalType": "uint256[2]",
          "name": "contract_auth",
          "type": "uint256[2]"
        }
      ],
      "name": "setContractAuthKey",
      "outputs": [],
      "payable": false,
      "stateMutability": "nonpayable",
      "type": "function"
    }
  ],
  "bytecode": "0x608060405234801561001057600080fd5b506103f0806100206000396000f3fe608060405234801561001057600080fd5b50600436106100415760003560e01c806357c562461461004657806359d05458146100e7578063daffea511461013d575b600080fd5b6100a96004803603604081101561005c57600080fd5b8101908080604001906002806020026040519081016040528092919082600260200280828437600081840152601f19601f82011690508083019250505050505091929192905050506101e3565b6040518082600260200280838360005b838110156100d45780820151818401526020810190506100b9565b5050505090500191505060405180910390f35b610127600480360360608110156100fd57600080fd5b81019080803590602001909291908035906020019092919080359060200190929190505050610273565b6040518082815260200191505060405180910390f35b6101e16004803603608081101561015357600080fd5b8101908080604001906002806020026040519081016040528092919082600260200280828437600081840152601f19601f820116905080830192505050505050919291929080604001906002806020026040519081016040528092919082600260200280828437600081840152601f19601f82011690508083019250505050505091929192905050506102a5565b005b6101eb610334565b600080836000600281106101fb57fe5b6020020151815260200190815260200160002060008360016002811061021d57fe5b60200201518152602001908152602001600020600280602002604051908101604052809291908260028015610267576020028201915b815481526020019060010190808311610253575b50505050509050919050565b6000602052826000526040600020602052816000526040600020816002811061029857fe5b0160009250925050505481565b6040518060400160405280826000600281106102bd57fe5b60200201518152602001826001600281106102d457fe5b6020020151815250600080846000600281106102ec57fe5b6020020151815260200190815260200160002060008460016002811061030e57fe5b6020020151815260200190815260200160002090600261032f929190610356565b505050565b6040518060400160405280600290602082028038833980820191505090505090565b8260028101928215610385579160200282015b82811115610384578251825591602001919060010190610369565b5b5090506103929190610396565b5090565b6103b891905b808211156103b457600081600090555060010161039c565b5090565b9056fea265627a7a72315820f89da88f494d4447fb580834803fa1e9c0cc965688cd0e0156a040deb3455cd364736f6c63430005100032",
  "source": "pragma solidity >=0.4.22 <0.9.0;\r\n\r\ncontract ContractAuth {\r\n    // enum type variable to store user gender\r\n    // Actual user object which we will store\r\n    // mapping(string => string) public authTable;\r\n    mapping(uint256 => mapping(uint256 => uint256[2])) public authTable;\r\n\r\n    // event signContract(uint256[2] contract_id, uint256[2] contract_auth);\r\n\r\n    // user object\r\n    //Internal function to conver genderType enum from string\r\n    function getContractAuthKey(uint256[2] memory contract_id)\r\n        public\r\n        view\r\n        returns (uint256[2] memory)\r\n    {\r\n        return authTable[contract_id[0]][contract_id[1]];\r\n    }\r\n\r\n    //Internal function to convert genderType enum to string\r\n    function setContractAuthKey(\r\n        uint256[2] memory contract_id,\r\n        uint256[2] memory contract_auth\r\n    ) public {\r\n        authTable[contract_id[0]][contract_id[1]] = [\r\n            contract_auth[0],\r\n            contract_auth[1]\r\n        ];\r\n        // emit signContract(contract_id, contract_auth);\r\n    }\r\n}\r\n",
  "sourcePath": "C:\\Users\\HY\\Desktop\\anib\\marinelink\\sol\\contracts\\ContractAuth.sol",
  "compiler": {
    "name": "solc",
    "version": "0.5.16+commit.9c3226ce.Emscripten.clang"
  },
  "schemaVersion": "3.4.3",
  "updatedAt": "2021-11-28T15:49:27.026Z",
  "devdoc": {
    "methods": {}
  },
  "userdoc": {
    "methods": {}
  }
}